:100000000C942A000C946D000C9447000C9447004B
:100010000C9447000C9447000C9447000C94470044
:100020000C9447000C9447000C9447000C94470034
:100030000C9447000C9447000C9447000C94470024
:100040000C9447000C9447000C9447000C94470014
:100050000C94470011241FBECFE5D8E0DEBFCDBF12
:1000600010E0A0E6B0E0E6E7F2E002C005900D92F5
:10007000A236B107D9F720E0A2E6B0E001C01D9298
:10008000A836B207E1F70E94ED000C9439010C94F8
:1000900000008F9ABB9A84B3836C84BB83B783665A
:1000A00083BF85B5846685BD8AEF82BF84BD089510
:1000B000992324F08CBFA89AA99804C081958CBF7D
:1000C000A99AA898772324F063BDAE9AAF980895B3
:1000D000619563BDAF9AAE9808951F920F920FB6C7
:1000E0000F9211248F939F938091640090916500EB
:1000F000019769F41EBC8CB59DB590936700809301
:1001000066001DBC1CBC10926500109264008091BA
:10011000640090916500892B49F48EB581608EBD95
:1001200081E090E090936500809364009F918F91AF
:100130000F900FBE0F901F90189589B380936300A6
:100140008B3139F466E970E086E990E00E9458004E
:10015000F4CF813139F466E970E086E990E00E94DD
:100160005800EBCF882311F08F3131F48091620079
:100170008F5F809362000895982F9D7F913021F0CA
:100180008F3011F0953039F46AE67FEF86E990E020
:100190000E945800D2CF982F9B7F933139F46BE4A3
:1001A00070E086E990E00E945800C7CF903121F0BE
:1001B000983111F08E3139F466E970E08AE69FEFEC
:1001C0000E945800BACF993109F0B7CF66E970E0C4
:1001D0008BE490E00E945800B0CF80EE8ABB0E9472
:1001E0004900C1E089B380936300811107C066E9CB
:1001F00070E086E990E00E945800F4CF8F31B1F5AD
:1002000080916000882371F3813049F4C0936200CB
:100210006AE67FEF86E990E00E945800E3CF9EEF08
:10022000980F923048F4C093620066E970E08AE665
:100230009FEF0E945800D6CF823059F4809162001F
:10024000813081F26AE67FEF86E990E00E945800F3
:10025000C9CF833039F680916200813019F266E9A6
:1002600070E08AE69FEF0E945800BCCF0E949D007C
:06027000B9CFF894FFCFA6
:02027600030083
:00000001FF
