S014000047656172204D6F746F7220332E737265630D
S11300000C942A000C9447000C9447000C9447006D
S11300100C9447000C9447000C9447000C94470040
S11300200C9447000C9447000C9447000C94470030
S11300300C9447000C9447000C9447000C94470020
S11300400C9447000C9447000C9447000C94470010
S11300500C94470011241FBECFE5D8E0DEBFCDBF0E
S113006010E0A0E6B0E0E6E1F2E002C005900D92F7
S1130070A236B107D9F720E0A2E6B0E001C01D9294
S1130080A436B207E1F70E94BD000C9409010C9458
S113009000008F9ABB9A84B3836C84BB83B7836656
S11300A083BF85B5846685BD8AEF82BF84BD08950C
S11300B0992324F08CBFA89AA99804C081958CBF79
S11300C0A99AA898772324F063BDAE9AAF980895AF
S11300D0619563BDAF9AAE98089589B38093630028
S11300E08B3139F466E470E086E490E00E945800B5
S11300F0F4CF813139F466E470E086E490E00E9444
S11301005800EBCF882311F08F3131F480916200D5
S11301108F5F809362000895982F9D7F913021F026
S11301208F3011F0953039F46AEB7FEF84E690E07C
S11301300E945800D2CF982F9B7F933139F463E209
S113014070E086E490E00E945800C7CF903121F01F
S1130150983111F08E3139F464E670E08AEB9FEF48
S11301600E945800BACF993109F0B7CF66E470E025
S113017083E290E00E945800B0CF80EE8ABB0E94D8
S11301804900C1E089B380936300811107C066E42C
S113019070E086E490E00E945800F4CF8F31B1F50E
S11301A080916000882371F3813049F4C093620028
S11301B06AEB7FEF84E690E00E945800E3CF9EEF65
S11301C0980F923048F4C093620064E670E08AEBC2
S11301D09FEF0E945800D6CF823059F4809162007C
S11301E0813081F26AEB7FEF84E690E00E94580050
S11301F0C9CF833039F680916200813019F264E608
S113020070E08AEB9FEF0E945800BCCF0E946D0003
S1090210B9CFF894FFCF02
S10502160300DF
S9030000FC
